:020000040000FA
:0400000007EF00F016
:100008001D8272ED00F0B4EF00F0E7EC00F0C9ECEF
:1000180000F08C88EA0E1C6EC30EE82EFED71C2E4C
:10002800FCD700F08C808C968C928C941A50020D20
:10003800010EF324D96E000EF420DA6EDF508A6EBA
:10004800EA0E1C6EC30EE82EFED71C2EFCD700F05D
:100058008C968C908C828C941950020D010EF3248E
:10006800D96E000EF420DA6EDF508A6EEA0E1C6E2E
:10007800C30EE82EFED71C2EFCD700F08C848C967D
:100088008C908C921850020D010EF324D96E000E3C
:10009800F420DA6EDF508A6EEA0E1C6EC30EE82E6C
:1000A800FED71C2EFCD700F08C868C908C928C94FA
:1000B8001750020D010EF324D96E000EF420DA6EEB
:1000C800DF508A6EEA0E1C6EC30EE82EFED71C2E79
:1000D800FCD700F00DEF00F007EF00F00600F2A4E7
:1000E80078EF00F07AEF00F0B2EF00F015C0D7FF1C
:1000F8001650D66E172A080E176485EF00F087EFA2
:1001080000F0B0EF00F0000E176E040E18648FEFC9
:1001180000F091EF00F0AFEF00F0000E186E080E3F
:10012800196499EF00F09BEF00F0ACEF00F0000EBF
:10013800196E040E1A64A3EF00F0A5EF00F0A9EF02
:1001480000F0000E1A6EB0EF00F01A2AB0EF00F0BF
:10015800192AB0EF00F0182A8C98F2941D92110019
:10016800B20EF66E010EF76E000EF86E00EE01F09C
:1001780010EE1BF00900F5CFEEFFE550E150FAE173
:100188001D901D92000109EF00F0F29ED59AD596B8
:10019800070ED512D59CF294F28AF28CF28ED58E87
:1001A80015C0D7FF1650D66E12003F0006005B0040
:1001B8004F0066006D007D0007007F0067007DE14D
:0501C800050409055AC1
:1001CE000F0EC112000E956E000E936E1F0E8C6EEA
:0601DE00000E8A6E120003
:020000040020DA
:08000000FFFFFFFFFFFFFFFF00
:020000040030CA
:0E00000000051F1FFF8385FF0FC00FE00F409C
:00000001FF
