:020000040000FA
:04000000B7EF3FF027
:107F2A000F0EC112000E956E000E936E1F0E8C6E10
:107F3A00000E8A6E12003F0006005B004F006600CA
:107F4A006D007D0007007F0067007DE1F29ED59AF3
:107F5A00D596070ED512D59CF294F28AF28CF28E3F
:107F6A00D58E1200400EF66E7F0EF76E000EF86E7A
:107F7A0000EE01F010EE16F00900F5CFEEFFE55025
:107F8A00E150FAE1186A176A0001CCEF3FF095EC6C
:107F9A003FF0ABEC3FF08C96F2A4D6EF3FF0D8EF6F
:107FAA003FF0D0EF3FF07D0ED76EE10ED66ED8903F
:107FBA001734D96E1834DA6E010ED926000EDA2279
:107FCA00DF508A6E174A182A18BEF5EF3FF018508C
:107FDA0009E10A0E175CD8A0F5EF3FF0F7EF3FF082
:107FEA00FBEF3FF0000E186E000E176EF294D0EF02
:067FFA003FF000EF00F073
:020000040020DA
:08000000FFFFFFFFFFFFFFFF00
:020000040030CA
:0E00000000051F1FFF8385FF0FC00FE00F409C
:00000001FF
