:020000040000FA
:0400000007EF00F016
:100008001F8270ED00F09EEF00F0D0EC00F0B3EC32
:1000180000F00A0E1A18D8A414EF00F016EF00F03A
:100028000DEF00F0000E1A6E050E1818D8A41FEF79
:1000380000F021EF00F05DEF00F0000E186E090EE1
:100048001918D8A42AEF00F02CEF00F04CEF00F0BC
:10005800000E196E050E1718D8A435EF00F037EF0B
:1000680000F03BEF00F0000E176E0DEF00F0172ABE
:100078008C908C868C828C841750020D010EF32490
:10008800D96E000EF420DA6EDF508A6E0DEF00F0A4
:10009800192A8C868C808C928C841950020D010E42
:1000A800F324D96E000EF420DA6EDF508A6E0DEF5D
:1000B80000F0182A8C948C868C808C821850020D43
:1000C800010EF324D96E000EF420DA6EDF508A6E2A
:1000D8000DEF00F007EF00F00600D9CF1BF0DACFE4
:1000E8001CF0F3CF1DF0F4CF1EF0F2A47EEF00F069
:1000F80080EF00F094EF00F015C0D7FF1650D66ED1
:100108001A2A8C968C808C828C841A50020D010ECF
:10011800F324D96E000EF420DA6EDF508A6EF29462
:100128001EC0F4FF1DC0F3FF1CC0DAFF1BC0D9FFBF
:100138001F921100860EF66E010EF76E000EF86E15
:1001480000EE01F010EE1AF00900F5CFEEFFE550D1
:10015800E150FAE11F901F92000109EF00F0F29EB2
:10016800D59AD596070ED512D59CF294F28AF28CC0
:10017800F28ED58E15C0D7FF1650D66E12003F00EE
:1001880006005B004F0066006D007D0007007F00E1
:100198006700F2FC050509090F0EC112000E956EE5
:0E01A800000E936E1F0E8C6E000E8A6E1200FB
:020000040020DA
:08000000FFFFFFFFFFFFFFFF00
:020000040030CA
:0E00000000051F1FFF8385FF0FC00FE00F409C
:00000001FF
