:020000040000FA
:0400000007EF00F016
:10000800198209ED00F02CEF00F00600F2A40FEFC2
:1000180000F011EF00F02AEF00F015C0D7FF1650DE
:10002800D66E174A182A18BE23EF00F0185009E1B7
:100038000A0E175CD8A023EF00F025EF00F029EF97
:1000480000F0000E186E000E176EF294199211004F
:10005800D00EF66E000EF76E000EF86E00EE01F090
:1000680010EE16F00900F5CFEEFFE550E150FAE189
:10007800186A176A19901992000143EF00F073EC9F
:1000880000F058EC00F08C968C94D8901734D96E08
:100098001834DA6E010ED926000EDA22DF508A6E85
:1000A80047EF00F007EF00F0F29ED59AD596070EBD
:1000B800D512D59CF294F28AF28CF28ED58E15C0A8
:1000C800D7FF1650D66E12003F0006005B004F00A7
:1000D80066006D007D0007007F006700F2FC0F0ED0
:1000E800C112000E956E000E936E1F0E8C6E000EE0
:0400F8008A6E1200FA
:020000040020DA
:08000000FFFFFFFFFFFFFFFF00
:020000040030CA
:0E00000000051F1FFF8385FF0FC00FE00F409C
:00000001FF
